:08000000803102288731FD2F39
:100F36002F0096019701980199019A019B010800DB
:100F4600623031008D008F019101023093009201D1
:100F5600080087319B2787318731D627873187312C
:100F6600A327873108008731AC27873120009716E1
:100F76000430F100CF30F0000230890BC02FF00BA7
:100F8600C02FF10BC02F200097120430F100CF3094
:100F9600F0000230890BCD2FF00BCD2FF10BCD2FAA
:100FA600B92F803102282000960197019801FE3062
:100FB6009100FF309200FD309300FF303E00CE00DE
:100FC600DF30C300FF30B800E501C401B901CF012D
:100FD600BA01C501D001FF30BB00FF30C600FF30AB
:100FE600D100FF30BC00FF30C700FF30D200083010
:0A0FF600E800080020008731B62F44
:020000040001F9
:0A000E00EC3FFF3F9F3FFF3FFF3F25
:00000001FF
