:1000000080313728003008007E1480310B1F09280A
:100010000A2835282E00191E0E280F281A280F1E10
:10002000122813281A2820006E088A006D080A007A
:1000300080313528991E1D281E2829288F1E212829
:1000400022282928210060088A005F080A008031E0
:100050003528971C2C282D2835288D1C3028312830
:10006000352889315521803135287E1009008031AD
:100070003928F730840087308500623086000030F0
:10008000870009308831BE208031B43084008B3045
:100090008500C03086000030870019308831BE20CE
:1000A0008031FD0120308400003085002C30883103
:1000B000B8208031A03084000030850020308831A5
:1000C000B82080317E102000893132292000D600EE
:1000D0005635313E8600870156083A3E8400850138
:1000E0000008800AD2000130D235890B74282830EC
:1000F0005207D3000630CC0056088A31CC2280311A
:1001000020005307D400540884008501403F803FFD
:10011000413F813F56083A3E860087010330010285
:10012000031C93289428992856083A3E8600870194
:1001300081010630CC0056088A31CC2280312A3E1B
:1001400086008701403F2000D200413FD3000630A7
:10015000CC0056088A31CC228031283E86008701A7
:10016000403F2000D400413FD50053085502031DF5
:10017000BB2852085402031CBE28BF283829063069
:10018000CC0056088A31CC2280312C3E8600870173
:10019000403F2000D200413FD3000630CC0056083B
:1001A0008A31CC2280312A3E86008701403F2000E0
:1001B000D400413FD50053085502031DE1285208E1
:1001C0005402031CE428E528F4280630CC00560825
:1001D0008A31CC2280312A3E86008701403F2000B0
:1001E000D000413FD100B0290630CC0056088A31FA
:1001F000CC2280312C3E86008701403F2000D20077
:10020000413FD3000630CC0056088A31CC228031E1
:10021000283E86008701403F2000D400413FD500A2
:1002200053085502031D162952085402031C1929AC
:100230001A2929290630CC0056088A31CC2280316F
:100240002C3E86008701403F2000D000413FD10076
:10025000B0290630CC0056088A31CC228031283EA5
:1002600086008701403F2000D000413FD100B029E7
:100270000630CC0056088A31CC2280312C3E8600D4
:100280008701403F2000D200413FD3000630CC0020
:1002900056088A31CC228031283E86008701403FB3
:1002A0002000D400413FD50053085502031D5A29B0
:1002B00052085402031C5D295E296D290630CC00CA
:1002C00056088A31CC228031283E86008701403F83
:1002D0002000D000413FD100B0290630CC005608A4
:1002E0008A31CC2280312C3E86008701403F20009D
:1002F000D200413FD3000630CC0056088A31CC22D0
:1003000080312A3E86008701403F2000D400413FD3
:10031000D50053085502031D8F2952085402031CAF
:1003200092299329A2290630CC0056088A31CC2282
:1003300080312C3E86008701403F2000D000413FA5
:10034000D100B0290630CC0056088A31CC22803149
:100350002A3E86008701403F2000D000413FD10067
:1003600008000A302000CC000030CD003908D7004A
:10037000D8015708CE005808CF008F31AC27813103
:1003800020004C084D04031DC629C729DB29D901CB
:100390005908C03E8600870101088831CB20813191
:1003A00001302000D7005708D90713305902031C29
:1003B000DA29DB29C82955308831CB20813120004A
:1003C00039088831CB2081312000DC015C08031919
:1003D000EA29EB29EC294F2A5C088B31CD238131A6
:1003E00020004D08DB004C08DA005A088831CB2089
:1003F000813120005B088831CB20813120005C08EE
:100400008A315122813120005508DB005408DA007E
:100410005A088831CB20813120005B088831CB20FD
:10042000813120005C088A31E22281312000DA002B
:10043000DB01DA1BDB035A088831CB208131200035
:100440005B088831CB20813120005C088A31F8229A
:1004500081312000D700D8015708DA005808DB00A6
:100460005A088831CB20813120005B088831CB20AD
:10047000813120005C088B310E2381318831CB2003
:10048000813120005C088B31E72381318831CB201A
:10049000813101302000D7005708DC07E629DC0154
:1004A0005C080319542A552A562A6B2A5C088A319B
:1004B000792281318831CB20813120005C088A315A
:1004C000652281318831CB20813101302000D70075
:1004D0005708DC07502A39088831CB208131013098
:1004E0002000D7005708B907AA308831CB208131C6
:1004F00008002000DA01DB01DC013C08D4000130F7
:10050000D435890B802A28305407D5000630CC001A
:100510005C088A31CC22823120005507D60056086B
:10052000860087015C35313E84008501403F000232
:10053000D0000131413F003BD1008931CC218231D3
:1005400020005108D9005008D80059085B02031D4B
:10055000AB2A58085A020318AE2AAF2AB32A590800
:10056000DB005808DA000130D4005408DC075C08CE
:100570000319BB2ABC2A7D2A00305B0265300319AF
:100580005A02031CC42AC52A202B0130D4003C087F
:100590002E3E860087015408810706300102031CA5
:1005A000D22AD32A382B3C08623E860087010108F4
:1005B000DD0002305D02031CDE2ADF2AE32A5D082B
:1005C000FF3EDD00E52A0F30DD00D701D70ADE014E
:1005D0005E083C06031DED2AEE2AEF2AFA2A5E0881
:1005E000623E8600870101085D06031DF82AF92A8C
:1005F000FA2AD7010130D4005408DE0703305E0226
:10060000031C032B042BE82A57080319082B092B7A
:10061000D92A3C08623E860087015D088100DE0120
:100620005E082E3E8600870181010130D400540807
:10063000DE0703305E02031C1E2B1F2B102B382BF2
:1006400000305B02323003195A020318282B292B81
:10065000382B3C082E3E8600870101080319312BF8
:10066000322B382B3C082E3E860087010130810258
:1006700008002000D40100308B1B0130D3004F2B29
:1006800001302000D1005108C0074003031D492B51
:100690004A2B4F2BC001BF01D401D40A622B400862
:1006A0008A31A2228331003A031D572B582B402B4D
:1006B000200040088A31B7228331003A0319612BA8
:1006C000622B402B20005408031D672B682BEB2B5B
:1006D0000930CC0040088A31CC228331433E2000CF
:1006E000D5005508893149218331003A0319792B06
:1006F0007A2B892B2000550886008701433F210073
:100700009D002000550886008701423F21009C0083
:10071000A72B200055088831F1208331003A0319B6
:10072000922B932BA22B2000550886008701423F75
:1007300021009C002000550886008701433F2100CE
:100740009D00A72B303021009C0030309D00200000
:100750003B08D100510821009C0720005508860065
:100760008701413F21009E0020005508043E86007D
:100770008701013622008D00200055088600870180
:10078000453F21009B0093172000BF01BF0ACC0109
:10079000CC0A40088B31522383318B132100131470
:1007A00020005508043E860087010108D100D201CF
:1007B0000930D135D20D890BD92B51082100900079
:1007C00020005208210091002000530C031C8B13C1
:1007D00003188B17BE010800F80100308B1B013095
:1007E000F700012C0130F50075082000C007400318
:1007F000031DFB2BFC2B012CC001BF01F801F80AE3
:10080000152C200040088A313D228331003A031D17
:100810000A2C0B2CF22B200040088A31292283312C
:10082000003A0319142C152CF22B7808031D192CEF
:100830001A2C8E2C0930F000200040088A318D22BD
:100840008331433EF9007908893127218331003A09
:1008500003192B2C2C2C382C790886008701433F58
:1008600021009D00790886008701423F9C00522CA0
:1008700079088831D9208331003A0319402C412C62
:100880004D2C790886008701423F21009C007908A1
:1008900086008701433F9D00522C303021009C0090
:1008A00030309D0020003B08F500750821009C07B2
:1008B000790886008701413F9E007908043E860042
:1008C0008701013622008D00790886008701453FA7
:1008D00021009B0093172000BF01BF0AF001F00A1E
:1008E00040088B31242383318B13210013147908A2
:1008F000043E860087010108F500F6010930F53550
:10090000F60D890B7F2C7508900076089100770C06
:10091000031C8B1303188B172000BE010800200056
:100920005808093E860087010108803AD900580816
:100930000E3E860087010103FF3A803AD902031870
:10094000A22CA32CCC2C58080A3E8600870101302B
:10095000810741310318810A58080A3E8600870141
:10096000403FD900413FDA0000305A0241300319BC
:100970005902031CBC2CBD2C032D58080A3E8600CE
:1009800087010030C03FC13F580886008701010839
:100990008E315D268431032D5808093E860087017B
:1009A0000108D900DA01D91BDA0358080E3E860087
:1009B00087015A08803A803C031DE02C5908010247
:1009C0000318E32CE42CFB2C20005808023E860080
:1009D00087010230810058080A3E860087010030F6
:1009E000C03FC13F5808860087010108CC0088310C
:1009F0008B208431032D200058080A3E8600870191
:100A00000030C03FC13F200058080C3E86008701DF
:100A10000130810741310318810A58080C3E8600D5
:100A200087011600403AD9001600D904031D192D7C
:100A30001A2D252D58080C3E860087010030C03F36
:100A4000C13F58088531B32584310800F900790881
:100A5000860087010108F80079088831D92085319E
:100A6000003A031D342D352D642D7908043E86008F
:100A700087010108F400F5010930F435F50D890B03
:100A80003D2D220015087502031D482D140874021F
:100A900003184B2D4C2D5F2D0130F4007908053ED5
:100AA00086008701740881071F300102031C592D3D
:100AB0005A2DB22D79088931F0218531B22D79086E
:100AC0008931F0218531B22D7908043E86008701F5
:100AD0000108F400F501F435F50D7835313E860056
:100AE0008701403FF600413FF700220014087602DC
:100AF000F0001508773BF1008931742185317508C4
:100B00007102031D852D740870020318882D892D2C
:100B1000942D7908023E86008701303081007908E3
:100B200089313D218531B22D7908033E8600870148
:100B30002E300102031C9D2D9E2DA92D7908023E09
:100B40008600870130308100790889313D21853167
:100B5000B22D0230F4007908033E86008701740844
:100B60008107B22D08002000D2008B1FB82DB92DAF
:100B7000FC2D8B135208053E86008701403FCC00B8
:100B8000413FCD00423FCE00433FCF000430CF363F
:100B9000CE0CCD0CCC0C890BC72D5208053E86001F
:100BA00087014C08810241314D08813B41314E089B
:100BB000813B41314F08813B7D315208033E860025
:100BC0008701403FCC00413FCD004C08CE004D088E
:100BD000CF00D001D1015208053E860087014E08A2
:100BE000810741314F08813D41315008813D4131FC
:100BF0005108813D8B173C2E5208053E8600870127
:100C0000403FCC00413FCD00423FCE00433FCF00AC
:100C10000430CF36CE0CCD0CCC0C890B092E5208EB
:100C2000053E860087014C08810241314D08813B19
:100C300041314E08813B41314F08813B7D315208A3
:100C4000033E86008701403FCC00413FCD004C0869
:100C5000CE004D08CF00D001D1015208053E8600DC
:100C600087014E08810741314F08813D41315008CD
:100C7000813D41315108813D08002000D6005608D1
:100C8000053E86008701403FCC00413FCD00423FFA
:100C9000CE00433FCF000430CF36CE0CCD0CCC0C71
:100CA000890B4C2E5608033E86008701403FD0003A
:100CB000413FD1005008D2005108D300D401D501E2
:100CC0004C08D2024D08D33B4E08D43B4F08D53BCD
:100CD0005508DA005408D9005308D8005208D70044
:100CE0005708CC005808CD005908CE005A08CF004C
:100CF00056080F3E86008701010A822ECF37CE0CA0
:100D0000CD0CCC0C890B7E2E4F08DA004E08D90092
:100D10004D08D8004C08D700DA1B9C2E5A08031D3A
:100D20009D2E5908031D9D2E5808031D9D2E8030B1
:100D30005702031C9C2E9D2EA62E00302000DA00A8
:100D40000030D9000030D8007F30D7002000DA1FF3
:100D5000B42E80305702FF30583BFF30593BFF30F4
:100D60005A3B0318B42EB52EBE2EFF302000DA00F9
:100D7000FF30D900FF30D8008030D700200056085F
:100D8000093E86008701570881000800F001200015
:100D900040088B312423863120003E080319D12ED0
:100DA000D22ED52E21009313342F21009313093016
:100DB000F000200040088A318D228631433EFC003D
:100DC0007C08893127218631003A031DE82EE92E5F
:100DD000EE2E7C08853126258631F22E7C0888315E
:100DE000C420863120004035313E86008701403FD7
:100DF000FA00413FFB00220014087A02F0001508B7
:100E00007B3BF100893174218631003071026530FD
:100E100003197002031C0D2F0E2F1A2F0930F0003A
:100E2000200040088A318D2286314B3E86008701A2
:100E30000115252F0930F000200040088A318D224D
:100E400086314B3E86008701011120003D08031DBD
:100E50002A2F2B2F342F4035313E86008701220068
:100E60001408C03F1508C13F20003D03031D392F62
:100E70003A2F3C2FBF013F2F8331EC2386310800EE
:100E8000200058080A3E86008701403FD900413FB4
:100E9000DA0000305A020930031959020318512FA1
:100EA000522F572F58088E31032687315B2F580851
:100EB0008531B3258731200058080A3E8600870116
:100EC0000130810741310318810A58080A3E860023
:100ED0008701403FD900413FDA0000305A0210300C
:100EE00003195902031C752F762F9E2F5808053EB3
:100EF00086008701403FD900413FDA00423FDB00D6
:100F0000433FDC000430DC36DB0CDA0CD90C890BF7
:100F1000832F5808033E860087015908C03F5A08AE
:100F2000C13F5808023E860087018101810A5808A6
:100F30000A3E860087010030C03FC13F0800200004
:100F400058080A3E86008701403FD900413FDA0039
:100F500003305A02E83003195902031CB02FB12F95
:100F6000C22F58088600870101088E315D2687311F
:100F700020005808860087010108CC0088318B20AA
:100F80008731F62F5808093E860087010108803A0C
:100F9000D90058080E3E8600870158080E3E84008E
:100FA000850100360102803AD9020318D82FD92FC3
:100FB000F62F5808023E860087018101810A5808F1
:100FC0000A3E860087010030C03FC13F58080C3EF2
:100FD00086008701FF30C03FFB30C13F58088600C4
:100FE00087010108CC0088318B208731080000344C
:100FF00007340F348D3408348B3408348B34083480
:101112000800080008000800080020003F08080036
:101122008B3169238831080022001D121D16080028
:101132008C317F24883108008831A1208831080051
:10114200B0308D310B25883108002E008D1086318C
:10115200C6268831080020004D08EC004C08EB0040
:10116200080020004D08EE004C08ED000800640065
:1011720080010131890BB9280034FE0012001E00E3
:10118200FE0BBF280034F0007008083E860087017D
:10119200811408002000CE004E088D31332588319D
:1011A20008008231792288318A310322883108008D
:1011B200F0007008083E86008701010E0139080020
:1011C2002000CC004C08083E8600870181100800F0
:1011D2002F0096019701980199019A019B0108003D
:1011E2002000CC004C08083E86008701010E013920
:1011F200080020004D082100DA0020004C082100E0
:10120200D900080020004D082100DE0020004C0813
:101212002100DD00080020004D082100DC00200034
:101222004C082100DB00080020004D082100E000EE
:1012320020004C082100DF000800623031008D00E0
:101242008F0191010630930092010800F1007108AC
:10125200083E86008701010CF000F00C700C013989
:1012620008008A31162289318B170B178D31AE2572
:101272008931372980313728F0007008083E86000E
:10128200870181157008083E860087010112080057
:101292002000CD004D08083E86008701010CCC00DD
:1012A200CC0C4C0C013908002E008D1020006B086C
:1012B2006C0403195D295E2963296C088A006B0896
:1012C2000A00893108008C31222489318C310424AE
:1012D200893188318C2089318C314024893188319F
:1012E200992089310800F11B7729782979298429E5
:1012F2007009F2007109F300F20A0319F30A720885
:10130200F0007308F10008002000E10161088F314C
:101312005A27893101302000E0006008E1076108A6
:10132200031994299529872908002000D6008B1FCC
:101332009B299C29A3298B1356088F310D278931AC
:101342008B17A72956088F310D27893108002000F5
:10135200D0005008031DAE29AF29B9290930CC00AD
:1013620050088A31CC2289314B3E86008701811197
:1013720008002000D0005008031DC029C129CB2934
:101382000930CC0050088A31CC2289314B3E86008C
:101392008701011408002000D11BD029D129D229AC
:1013A200DD295009D2005109D300D20A0319D30A08
:1013B2005208D0005308D10008008E312F268931FF
:1013C200003A031DE529E629E8290030EF29883192
:1013D200D22089318D31D825893101300800F000C1
:1013E2007008083E8600870101167008033E8600D9
:1013F20087018101810A7008023E86008701303030
:101402008100080001302000CC004C08BC070330EA
:101412003C02031C0D2A0E2A0F2ABC013C08623E24
:10142200860087010108BB0008008831E9208A3163
:101432008D3185258A3189311E218A318C31C22430
:101442008A318E31CB268A31893164218A31080072
:10145200F4007408031D2E2A2F2A3B2A0930F000BB
:1014620074088A318D228A314B3E86008701010839
:1014720001393C2A00300800F4007408031D422A96
:10148200432A4F2A0930F00074088A318D228A31AA
:101492004B3E86008701010C0139502A00300800BA
:1014A2002000D6005608031D572A582A622A5608D9
:1014B2008C315E248A3120004D08D5004C08D400BE
:1014C200642AD401D50108002000D0005008031D71
:1014D2006B2A6C2A772A0930CC0050088A31CC2238
:1014E2008A31463E860087010108782A00300800CA
:1014F2002000D0005008031D7F2A802A8B2A093041
:10150200CC0050088A31CC228A31483E86008701BD
:1015120001088C2A00300800F300F201731C922AA1
:10152200932A972A7008F1007108F2070310F00D50
:101532000310F30C7308031D9F2AA02A8F2A720836
:1015420008002000D0005008031DA82AA92AB52AA5
:101552000930CC0050088A31CC228A314B3E8600B9
:101562008701010C0139B62A003008002000D000A2
:101572005008031DBD2ABE2ACA2A0930CC005008D1
:101582008A31CC228A314B3E86008701010801391B
:10159200CB2A003008002000CF00CE014F1CD22AF7
:1015A200D32AD72A4C08CD004D08CE070310CC0D04
:1015B2000310CF0C4F08031DDF2AE02ACF2A4E0862
:1015C20008002000CD004D08031DE82AE92AF62A6A
:1015D2004D08CC000330CC35FF3E031DEC2A4C35C0
:1015E200B93E860087010108F72A00300800200072
:1015F200CD004D08031DFE2AFF2A0C2B4D08CC00FE
:101602000330CC35FF3E031D022B4C35BF3E860016
:10161200870101080D2B003008002000CD004D0885
:10162200031D142B152B222B4D08CC000330CC3577
:10163200FF3E031D182B4C35BE3E86008701010874
:10164200232B00300800F3002D2B700C2000031C0C
:101652009311031893153A2B7308F100F2017208E3
:10166200003A0319352B3A2B7108003A0319262B3D
:101672003A2B08002000D10051088931BA218B3160
:10168200200051088931A8218B3109302000CC007B
:1016920051088A31CC228B31433E8831E1208B3193
:1016A20008002000CF005B2B4C0C031C9311031885
:1016B2009315682B4F08CD00CE014E08003A03194E
:1016C200632B682B4D08003A0319552B682B080031
:1016D20020003508A03E86008701220019088100FB
:1016E2000130F00070082000B50708303502031CF5
:1016F2007B2B7C2B7D2BB5010130F0007008B407E9
:1017020008002000D2005208031D882B892B982B39
:101712000930CC0052088A31CC228B31493E8600F6
:101722008701403F2000D000413FD1009A2BD001D9
:10173200D10108002000D1005108031DA12BA22BCA
:10174200B22B0930CC0051088A31CC228B314B3E6E
:1017520086008701010C2000D000D00C500C01390A
:10176200B32B003008005F34B434003486344A347A
:101772000334EB34003400340034003400340034D9
:101782000034AA34553401346E34A0344034073462
:101792008F3404349F3407342000CF004F08031DD8
:1017A200D32BD42BE42B4F08CE000330CE35FF3E93
:1017B200031DD72B4E35B33E86008701403FCC0038
:1017C200413FCD00E62BCC01CD0108002000CD0029
:1017D2004D08031DED2BEE2B022C4D08CC000330DF
:1017E200CC35FF3E031DF12B4C35B23E86008701FE
:1017F200023001060319FE2B002C0130012C0030AF
:10180200032C0030080000302000CC009030CD00C6
:101812001030CE000030CF00B0308D315C258C31DD
:101822002000D70157088E315D268C31013020000F
:10183200D6005608D70757080319202C212C132C41
:10184200080010302000CC009030CD000930CE00CE
:101852000030CF0043308D315C258C312000D70120
:1018620057088B313B238C3101302000D6005608BB
:10187200D707570803193E2C3F2C312C0800433060
:101882002000CE004330CD004E084D0203184A2CF2
:101892004B2C4C2C5D2C4E088831E1208C310930C8
:1018A2002000CD004D08CE074330CD004E084D023A
:1018B20003185C2C5D2C4C2C08002000D30053082C
:1018C200CE000330CE35FF3E031D632C4E35B53EB0
:1018D20086008701403FCF00413FD000423FD10008
:1018E200433FD2000430D236D10CD00CCF0C890B3E
:1018F200742C5008CD004F08CC00080003302100A2
:1019020098009A019B0122008E018F0190019101A2
:10191200920193014130210094008B3095000F30E9
:101922009600C43093002E008D109714A63020002C
:10193200CC000830CD008831AC208C310800083052
:10194200200036020318A62CA72CBF2C3708A83E6D
:1019520086008701010822009A000130F000700819
:101962002000B70708303702031CB82CB92CBA2C58
:10197200B7010130F0007008B607C12C2E00191211
:10198200080022008E018F019001910192019301C2
:101992008D0121009E019B019C01940195019601FC
:1019A20097019A01990103309800843093009D01B8
:1019B2002E008D10971489302000CC000830CD0005
:1019C2008831AC208C3108002000D90059088600EB
:1019D20087010108803166208C3120005108D8002F
:1019E2005008D7008B1FF62CF72C022D8B135908A9
:1019F200063E860087015708C03F5808C13F8B1733
:101A02000A2D5908063E860087015708C03F58082C
:101A1200C13F08002000CE004E08023E860087012A
:101A220002300106031D162D172D322D4E080A3ED7
:101A3200860087010130810741310318810A4E086F
:101A42000A3E8600870116000104031D292D2A2D56
:101A5200322D4E080A3E86008701FF30C03FFF301C
:101A6200C13F08002000CD0036080319392D3A2D58
:101A7200352D2E00191A3E2D3F2D442D20004D08E4
:101A820022009A00592D191220003808A83E86001B
:101A920087014D0881000130CC004C08B80708309E
:101AA2003802031C552D562D572DB8010130B602B0
:101AB2002E00191608002000D5004D08D2004C084F
:101AC200D1005508D400782D5108840052088500B1
:101AD2000008D3000130D1070030D23D54088600FF
:101AE2008701530881000130D0005008D40701302B
:101AF200CE020030CF3B4E0A031D832D4F0A031D39
:101B0200832D842D652D08002000960197019801F0
:101B1200FF309100FF30920077309300F7303E00A3
:101B2200CE00FF30C300FF30B800E501C401B901A7
:101B3200CF01BA01C501D001FF30BB00FF30C600A2
:101B4200FF30D100FF30BC00FF30C700FF30D200B1
:101B52000830E8001030A7000800200041080319EF
:101B6200B32DB42DB92D893164218D312000C101ED
:101B7200C201C20A8931DE218D31003A031DC22D14
:101B8200C32DC52D0030D72D893185218D3181316D
:101B9200B1218D31803102208D312000C2008C3183
:101BA20040248D3188319D208D3101300800200084
:101BB200DB010930CC005B088A31CC228D314B3EEF
:101BC20086008701811CE62DE72DF82D09302000C3
:101BD200CC005B088A31CC228D31433E8C31E52426
:101BE2008D3120005B08CC0088318D208D31013091
:101BF2002000DA005A08DB075B080319012E022EC7
:101C0200DA2D08002000D700570A86008701010854
:101C12008B3182238E3120005008D3005108D4002A
:101C2200D501D6015708053E860087015308C03FFB
:101C32005408C13F5508C23F5608C33F5708053EE6
:101C420086008701043081354131810D4131810D9A
:101C52004131810D7D31890B242E08002000D701EE
:101C620057088A31A2228E31003A031D392E3A2EAC
:101C7200512E200057088A31B7228E31003A0319BB
:101C8200432E442E512E88318E208E31003A031D70
:101C92004B2E4C2E4F2E833139238E3100305C2E49
:101CA20001302000D6005608D707570803195A2ECC
:101CB2005B2E312E013008002000D2005208D100E4
:101CC2000330D135FF3E031D622E5135B03ED300A5
:101CD2005308023E8600870181015308053E8600B3
:101CE20087010030C03F0030C13FC23FC33F5308AD
:101CF2000A3E860087010030C03FC13F53080C3EB8
:101D0200860087010030C03FC13F530A8600870129
:101D120001088931A8218E31080020003508203EB3
:101D220086008701810122001D1D982E992EA52E65
:101D320020003508203E86008701811421005E08BC
:101D42008A005D080A008E3122009D1CA92EAA2E4F
:101D5200B62E20003508203E86008701011521009D
:101D62005C088A005B080A008E3120003508203E9C
:101D72008600870101080319BF2EC02EC72E21003D
:101D82005A088A0059080A008E31CA2E8B316923FB
:101D92008E3108002E0099128E302000CC000E30B9
:101DA200CD00893115218E312E001912A03020006C
:101DB200CC000C30CD008831B2208E3108302200A8
:101DC2009F0080309D0024309E0010309B009C01BB
:101DD2008A302000CC000830CD00893103218E31B9
:101DE20095302000CC000830CD0089310C218E3195
:101DF20091302000CC000830CD008831FA208E319D
:101E02002000B301B801B7010830B600B501FD01E9
:101E1200B4012E00991608002000D5005508023E94
:101E22008600870101080319172F182F492F55081B
:101E3200033E86008701403FD300413FD400D436A1
:101E4200D30CD436D30C5508033E860087015308C1
:101E5200810241315408813B7F31550A8600870156
:101E620001088B3182238F3120005008D3005108A2
:101E7200D400D436D30CD436D30C5508033E860096
:101E820087015308810741315408813D7F31592F21
:101E9200550A8600870101088B3182238F31200089
:101EA2005508033E860087015008C03F5108C13FD4
:101EB20008002000DE005E08DD000330DD35FF3E55
:101EC200031D5F2F5D35B03EDF005F0A860087018C
:101ED20001088A31A2228F31003A0319712F722F21
:101EE200AB2F20005F0A8600870101088B319B23FC
:101EF2008F31003A03197E2F7F2FAB2F20005F080E
:101F0200893196218F3120005F0886313D268F313D
:101F120020005F08023E8600870103300102031C95
:101F2200932F942F9B2F5F088600870101088E3123
:101F32005D268F3120005F08D8005F08023E8600D0
:101F420087010135D33E86008701413F8A00403F29
:101F52000A008F3108002000D201CF1FB12FB22F0B
:101F6200B92FCE09CF09CE0A0319CF0AD201D20A5C
:101F7200CD1FBC2FBD2FC22FCC09CD09CC0A03190E
:101F8200CD0A4C084D040319C72FC82FF12FD101D8
:101F9200D10AD42F0130CC35CD0D890BCC2F013095
:101FA200D0005008D107CD1FD72FD82FCB2F4D08E7
:101FB2004F02031DDE2F4C084E02031CE12FE22FBD
:101FC200E62F4C08CE024D08CF3B0130CD36CC0C6B
:101FD200890BE72F0130D102031DF02FF12FD82FEB
:101FE20052080319F52FF62FFB2FCE09CF09CE0A7F
:101FF2000319CF0A4F08CD004E08CC000800003468
:10200200003400340034003400340034003400342E
:1020120000340034003400340034643401340034B9
:10202200133430341034203400340034003400349B
:020000040001F9
:0A000E00EC3FBF379F3FFF3FFF3F6D
:00000001FF
